:100000000C94EA000C940B010C940B010C940B0162
:100010000C940B010C940B010C940B010C940B0130
:100020000C940B010C940B010C940B010C940B0120
:100030000C940B010C940B010C940B010C940B0110
:100040000C940B010C940B010C940B010C940B0100
:100050000C940B010C940B010C940B010C940B01F0
:100060000C940B010C940B010C940B010C940B01E0
:100070000C940B010C940B010C940B010C940B01D0
:100080000C940B010C940B010C940B010C940B01C0
:100090000C940B010C940B010C940B010C940B01B0
:1000A0000C940B010C940B010C940B010C940B01A0
:1000B0000C940B010C940B010C940B010C940B0190
:1000C0000C940B010C940B010C940B010C940B0180
:1000D0000C940B010C940B010C940B010C940B0170
:1000E0000C940B010C940B010C940B010C940B0160
:1000F0000C940B010C940B010C940B010C940B0150
:100100000C940B010C940B010C940B010C940B013F
:100110000C940B010C940B010C940B010C940B012F
:100120000C940B010C940B010C940B010C940B011F
:100130000C940B010C940B010C940B010C940B010F
:100140000C940B010C940B010C940B010C940B01FF
:100150000C940B010C940B010C940B010C940B01EF
:100160000C940B010C940B010C940B010C940B01DF
:100170000C940B010C940B010C940B010C940B01CF
:100180000C940B010C940B010C940B010C940B01BF
:100190000C940B010C940B010C940B010C940B01AF
:1001A0000C940B010C940B010C940B010C940B019F
:1001B0000C940B010C940B010C940B010C940B018F
:1001C0000C940B010C940B010C9414020C940D0173
:1001D0000C94010211241FBECFEFCDBFDFE3DEBFC1
:1001E00000E00CBF10E2A0E0B0E2E6EFF7E000E0D4
:1001F0000BBF02C007900D92AA30B107D9F720E2D9
:10020000AAE0B0E201C01D92AC35B207E1F70E944E
:10021000E6030C94F9030C940000CF93DF931F9234
:10022000CDB7DEB781E0809305068983A0E0B0E218
:10023000F9019D918191981711F0198204C080E213
:10024000A830B807B1F781E080930606AE014F5F92
:100250005F4F61E00E94AC0180E00F90DF91CF9191
:100260000895FC0180E09DE4615070F021918227A7
:1002700028E030E087FF03C0880F892701C0880F7E
:1002800021503109B9F7F0CF0895CF93DF93EC01F6
:1002900089910E943C0388818111FACFDF91CF912F
:1002A0000895AC01FC01319620E091E0961760F4CE
:1002B0008191811107C0DA01A20FB11D892F821B24
:1002C0008C93292F9F5FF2CF80E00895FC018081FD
:1002D0001082982F861748F4992339F0DF01A80F70
:1002E000B11D9C911C92890FF5CF089520915A2041
:1002F00030915B202031310514F081E604C0603C70
:10030000710530F082E60E943C0381E090E00895A0
:1003100095E0929FF001939FF00D1124E65FFF4D51
:10032000808361837283438354832F5F3F4F209385
:100330005A2030935B2080E090E0089541E052E045
:1003400060E070E086E70E94760144E152E060E000
:1003500070E087E70C947601CF92DF92EF92FF92E4
:100360000F931F93CF93DF93CDB7DEB7C05CD10956
:10037000CDBFDEBFF62E19828A836B83DE01149611
:10038000FA016D01062F10E0CF01841B950B801739
:1003900091071CF481918D93F7CF62E06F0DCE0130
:1003A00002960E943101F601E00FF11F808368017F
:1003B00084E0C80ED11C8E010F5F1F4FF801EC0DB9
:1003C000FD1D108265E06F0DC8010E94510178018A
:1003D000C701801B910BC816D90634F0F701819133
:1003E0007F010E943C03F4CFC054DF4FCDBFDEBF7E
:1003F000DF91CF911F910F91FF90EF90DF90CF9001
:100400000895CF93DF931F92CDB7DEB783E0898342
:10041000AE014F5F5F4F61E082E70E94AC0180E078
:100420000F90DF91CF910895CF93DF93CDB7DEB7D3
:100430006097CDBFDEBF60915A2070915B20AB0109
:10044000552720E035E0822F90E0841795078CF443
:10045000A1E0B0E0AC0FBD1FA80FB91F389FF0019D
:10046000399FF00D1124E65FFF4D80818C932F5F43
:10047000EACFAE014F5F5F4F82E70E94AC0180E0A0
:100480006096CDBFDEBFDF91CF9108955F926F92EE
:100490007F928F929F92AF92BF92CF92DF92EF9214
:1004A000FF920F931F93CF93DF93CDB7DEB7C15C5D
:1004B000D109CDBFDEBFCF53DF4F1882C15CD04022
:1004C000CE0101966C017E0195E0E90EF11C8601DA
:1004D00037010E943503F80181938F01811102C019
:1004E00085E06DC0EE15FF05A1F764E0C6010E942E
:1004F0006601582E20915A2030915B209A8180E02D
:1005000045E0A82EB12CA216B30664F44A9DF00172
:100510004B9DF00D1124E65FFF4D5081591739F0C6
:100520008F5FEFCFA216B30611F481E048C08C8133
:1005300090E00596852C912C881599054CF484E063
:100540003EC00E943503F70181937F01882341F269
:1005500087010C191D098C8190E004968017910782
:1005600084F70E943503F601E00FF11F80838111AB
:10057000E6CF602F65196F5FC601880D991D0E9437
:1005800066016EEF600FCE0102960E943101FE01FE
:10059000E00FF11F9081891711F082E010C085E013
:1005A0008A9DF0018B9DF00D1124E65FFF4D0380C5
:1005B000F481E02D93014C816B818A811995CF5391
:1005C000DF4F8883C15CD040AE014F535F4F61E085
:1005D00085E60E94AC01CF53DF4FCDBFDEBFDF9178
:1005E000CF911F910F91FF90EF90DF90CF90BF9030
:1005F000AF909F908F907F906F905F900895E0E410
:10060000F6E088E0818384E08283E0EAF8E083E03A
:10061000858381E0868317828481806184838481DD
:10062000886084830895CF93DF931F921F92CDB784
:10063000DEB769837A8320E030E049815A8124174C
:10064000350769F04091A10847FF06C02091A00836
:10065000FC01208381E004C02F5F3F4FEECF80E09C
:100660000F900F90DF91CF9108958091A10887FF9F
:10067000FCCF8091A00808959091A10895FFFCCF30
:100680008093A0080895FC016083718342831486DF
:100690001386168615860895FC0162830895FC0171
:1006A000958526859F5F937081E0921301C080E05D
:1006B00008951F93CF93DF93EC01162F0E944F03F1
:1006C000882379F09D85FE01E90FF11D17839F5F57
:1006D00093709D87E881F98193819C7F2A81922B79
:1006E0009383DF91CF911F910895FC012385948519
:1006F00081E0291301C080E00895FC018485DF01B9
:10070000A80FB11D13968C9194859F5F9370948769
:100710000895FC0183858F5F83702485A081B1815A
:100720009C91821749F02385DF01A20FB11D13961A
:100730009C93838781E0089580E00895CF93DF93B1
:10074000FC0196858585A081B181981307C0139619
:100750008C9113978C7F13968C930AC08685EF013A
:10076000C80FD11D8F818C9386858F5F837086879C
:10077000DF91CF910895FC01848170FF02C08160F8
:1007800001C08E7F848360830895FC01848180FF93
:1007900004C0808190E091600895808190E0089588
:1007A0001092520010925500809150008860809302
:1007B00050008091510083FFFCCF88ED84BF83E01F
:1007C0008093400088E08093500008950E94D003F9
:1007D0000E94FF0281E0809301060E949E014DE08D
:1007E00051E060E070E081E00E9476010E944602E4
:0607F000FDCFF894FFCFDD
:0A07F600696E66696E656F6E0000A3
:00000001FF
